:020000040000FA
:060000000A128A110C280F
:10000800FE00030EF0000A08F1000A168A11162DE8
:100018000A128A110F288313C630FD000730FE002C
:10002800DA30FF00A03084000A168A1161240A120F
:100038008A110A168A111A240A128A11F9000A1654
:100048008A111B240A128A11FA000A168A111C2422
:100058000A128A11FB0083160313C601C701C801DF
:10006800C901CA01CB01CC0183120313E801E901DC
:10007800EA01EB01EC01ED01EE0183010A128A1598
:100088001B2B83120313E4000A168A1180260A1216
:100098008A1133308316031342064304031D55287F
:1000A80056281B2A0A168A1139240A128A113C304A
:1000B80083120313A0009130A100C030A2000A16D9
:1000C8008A11E3240A128A11831203136C08D800D8
:1000D8005807A03E840083130008A000840A000883
:1000E8008403A100C630A2000A168A11E3240A126A
:1000F8008A11363083120313A0009130A10090308A
:10010800A2000A168A11E3240A128A119630F8000E
:100118000A30F2000030F300831203136D08D80090
:10012800D9015808F4005908F5000A168A111B2647
:100138000A128A117208303E0A168A1170240A12AD
:100148008A119730F8000A30F2000030F300831269
:1001580003136D08D800D9015808F4005908F500B0
:100168000A168A11C4250A128A117208303E0A1624
:100178008A1170240A128A119830F8003A300A1647
:100188008A1170240A128A119930F8000A30F20094
:100198000030F300831203136E08D800D901580801
:1001A800F4005908F5000A168A111B260A128A114A
:1001B8007208303E0A168A1170240A128A119A307F
:1001C800F8000A30F2000030F300831203136E08BF
:1001D800D800D9015808F4005908F5000A168A1100
:1001E800C4250A128A117208303E0A168A11702430
:1001F8000A128A11FF3083160313C2000030C300AD
:10020800333083120313DA00BB30D900DF30D80053
:10021800D80B0C29D90B0C29DA0B0C290A168A11D0
:1002280039240A128A119E3083120313A0009030D9
:10023800A1008030A2000A168A11E3240A128A114A
:100248005E3083120313A0009130A100C030A200D9
:100258000A168A11E3240A128A11D530831203136D
:10026800A0009030A1009030A2000A168A11E32461
:100278000A128A11A93083120313A0009030A1003A
:10028800D030A2000A168A11E3240A128A113C30DF
:10029800F200831203136D080A168A114A240A12FF
:1002A8008A11831203136E07E800EA006A08D8006F
:1002B800D901DA01DB015B08F5005A08F400590896
:1002C800F3005808F20001300A128A1550210A1268
:1002D8008A11750883120313B1007408B0007308FB
:1002E800AF007208AE003E30AD00EB30AC00853098
:1002F800AB001F30AA000A128A1122240A128A119E
:10030800831203132D08C7002C08C6002B08C5004C
:100318002A08C4000A128A1164270A128A11831251
:1003280003134408E9006A08D800D901DA01DB019F
:100338005B08F5005A08F4005908F3005808F20061
:1003480001300A128A1550210A128A11750883127F
:100358000313B1007408B0007308AF007208AE0050
:100368003D30AD00F530AC00C230AB008F30AA0094
:100378000A128A1122240A128A11831203132D08E1
:10038800C7002C08C6002B08C5002A08C4000A129A
:100398008A1164270A128A118312031344088316E8
:1003A8000313CB00831203136A08D800D901DA01BA
:1003B800DB015B08F5005A08F4005908F3005808F7
:1003C800F20001300A128A1550210A128A117508A2
:1003D80083120313B1007408B0007308AF007208E9
:1003E800AE003E30AD00D730AC000A30AB003D3037
:1003F800AA000A128A1122240A128A1183120313EC
:100408002D08C7002C08C6002B08C5002A08C40000
:100418000A128A1164270A128A11831203134408E4
:1004280083160313CA0083120313121507151F300E
:1004380083126406031D212A222A282A1211071171
:100448004430F9000030FA003C30F2006D080A161A
:100458008A114A240A128A11831203136E07EA00CA
:1004680008306C020318392A3A2A9B2A6808D800EF
:10047800D9015908DB0069085802DA00031CDB03BC
:100488005B08803A803C031D4B2A5A086A02031C09
:100498004E2A4F2A5D2AC53083120313A0009030DC
:1004A800A1008A30A2000A168A11E3240A128A11CE
:1004B800602B831203136808D800D9015908DB00A0
:1004C80069085802DA00031CDB035B08DD008316A9
:1004D80003134A08831203135A02DC00031CDD03CA
:1004E8005D08803A803C031D7B2A5C086A02031C75
:1004F8007E2A7F2A8D2A423083120313A00091306E
:10050800A1008A30A2000A168A11E3240A128A116D
:10051800602B303083120313A0009130A1008A3081
:10052800A2000A168A11E3240A128A11602B0830E5
:100538006C06031DA02AA12A432B6A08D800D901FA
:10054800DA01DB015B08F5005A08F4005908F300EA
:100558005808F20001300A128A1550210A128A112D
:10056800750883120313CF007408CE007308CD00FA
:100578007208CC006808DC00DD01DE01DF015F08DD
:10058800F5005E08F4005D08F3005C08F200013035
:100598000A128A1550210A128A1175088312031348
:1005A800CB007408CA007308C9007208C80068083C
:1005B800E000E101E201E3016308F5006208F400EC
:1005C8006108F3006008F20001300A128A15502110
:1005D8000A128A11750883120313B1007408B00057
:1005E8007308AF007208AE003E30AD00CC30AC00EE
:1005F800CC30AB00CD30AA000A128A1122240A128C
:100608008A11831203132D08C7002C08C6002B0873
:10061800C5002A08C4000A168A11BF240A128A11C2
:10062800831203134708D3004608D2004508D100B7
:100638004408D0000A168A115C270A128A11031C82
:10064800262B272B352B423083120313A000913021
:10065800A1008A30A2000A168A11E3240A128A111C
:10066800602B303083120313A0009130A1008A3030
:10067800A2000A168A11E3240A128A11602B093093
:100688006C06031D482B492B552B3030A0009130A8
:10069800A1008A30A2000A168A11E3240A128A11DC
:1006A800602BC530A0009030A1008A30A2000A1645
:1006B8008A11E3240A128A11C630F8000A30F200BF
:1006C8000030F300831203136D08D800D9015808CD
:1006D800F4005908F5000A168A111B260A128A1115
:1006E8007208303E0A168A1170240A128A11C7301D
:1006F800F8000A30F2000030F300831203136D088B
:10070800D800D9015808F4005908F5000A168A11CA
:10071800C4250A128A117208303E0A168A117024FA
:100728000A128A11C830F8003A300A168A11702461
:100738000A128A11C930F8000A30F2000030F300BA
:10074800831203136E08D800D9015808F400590819
:10075800F5000A168A111B260A128A117208303E01
:100768000A168A1170240A128A11CA30F8000A304F
:10077800F2000030F300831203136E08D800D90189
:100788005808F4005908F5000A168A11C4250A12F7
:100798008A117208303E0A168A1170240A128A11C8
:1007A800831203136D08031DDA2BDB2B212C6E0833
:1007B800031DDF2BE02B212C0A168A1139240A127B
:1007C8008A1183120313071187141230A000903086
:1007D800A1008030A2000A168A11E3240A128A11A5
:1007E800523083120313A0009030A100C030A20041
:1007F8000A168A11E3240A128A113330831203136A
:10080800DA00BB30D900DF30D800D80B092CD90B5F
:10081800092CDA0B092C8312031387100130F90015
:100828000030FA00113083160313C2000030C300F1
:100838000A168A1139240A128A110800831203132E
:100848002D08B7008030B7052D08B2003207BD006B
:10085800AC1F2F2C302C312C3D143D080319352C9E
:10086800362C452C3D0A031D3A2C3B2C432C0030DA
:10087800AD000030AC000030AB000030AA00AC176F
:100888004D2C0030AD000030AC000030AB00003023
:10089800AA0031088039B7063108B2003207B8001B
:1008A800B01F572C582C592C3814380803195D2CB4
:1008B8005E2C6D2C380A031D622C632C6B2C0030C7
:1008C800B1000030B0000030AF000030AE00B0170B
:1008D800752C0030B1000030B0000030AF0000309F
:1008E800AE0038080319792C7A2C7F2C3D08031D9B
:1008F8007E2C7F2C882C0030AD000030AC000030FE
:10090800AB000030AA00632F2A08F20030080A1250
:100918008A1502200A128A11730883120313C3006E
:100928007208C2004208B200B301B401B50135082B
:10093800BC003408BB003308BA003208B9004308C9
:10094800B200B301B401B5013508C1003408C000D4
:100958003308BF003208BE002B08F2002F080A1225
:100968008A1502200A128A11730883120313C3001E
:100978007208C2004208B200B301B401B5013208DE
:10098800B907330803110318013E0319CC2CBA0721
:10099800340803110318013E0319D32CBB0735088B
:1009A80003110318013E0319DA2CBC074308B200EF
:1009B800B301B401B5013208BE07330803110318A7
:1009C800013E0319E82CBF07340803110318013E40
:1009D8000319EF2CC007350803110318013E03194A
:1009E800F62CC1072C08F2002E080A128A150220DC
:1009F8000A128A11730883120313C3007208C20013
:100A08004208B200B301B401B5013208B90733088E
:100A180003110318013E0319122DBA0734080311F4
:100A28000318013E0319192DBB07350803110318D4
:100A3800013E0319202DBC074308B200B301B401DD
:100A4800B5013208BE07330803110318013E031924
:100A58002E2DBF07340803110318013E0319352D45
:100A6800C007350803110318013E03193C2DC107BF
:100A78000830B2000310B90DBA0DBB0DBC0DB20B96
:100A88003E2D2B08F2002E080A128A1502200A129F
:100A98008A11730883120313C3007208C200420844
:100AA800B2004308B300B401B5013208B9073308EE
:100AB80003110318013E0319622DBA073408031104
:100AC8000318013E0319692DBB07350803110318E4
:100AD800013E0319702DBC072A08F2002F080A12DC
:100AE8008A1502200A128A11730883120313C3009D
:100AF8007208C2004208B2004308B300B401B5014D
:100B08003208B907330803110318013E03198D2D64
:100B1800BA07340803110318013E0319942DBB07C3
:100B2800350803110318013E03199B2DBC07083033
:100B3800B2000310B90DBA0DBB0DBC0DB20B9D2D43
:100B48002A08F2002E080A128A1502200A128A11AF
:100B5800730883120313C3007208C2004208B2006C
:100B68004308B300B401B5013208B90733080311CB
:100B78000318013E0319C12DBA07340803110318DD
:100B8800013E0319C82DBB07350803110318013EA0
:100B98000319CF2DBC072B08F20030080A128A155A
:100BA80002200A128A11730883120313C300720801
:100BB800C2004208B2004308B300B401B5013208CC
:100BC800BE07330803110318013E0319EC2DBF07B4
:100BD800340803110318013E0319F32DC007350823
:100BE80003110318013E0319FA2DC1072C08F2005E
:100BF8002F080A128A1502200A128A117308831212
:100C08000313C3007208C2004208B2004308B300CD
:100C1800B401B5013208BE07330803110318013EB9
:100C28000319172EBF07340803110318013E0319CF
:100C38001E2EC007350803110318013E0319252E7F
:100C4800C1072C08F20030080A128A1502200A127D
:100C58008A11730883120313C3007208C200420882
:100C6800B2004308B300B401B50108300310B20D57
:100C7800B30DB40DB50DFF3E031D3A2E3208BE0765
:100C8800330803110318013E03194B2EBF0734081C
:100C980003110318013E0319522EC007350803112A
:100CA8000318013E0319592EC1073908B2003A0842
:100CB800B3003B08B4003C08B50018300310B50C6D
:100CC800B40CB30CB20CFF3E031D622E3208BE07F3
:100CD800330803110318013E0319732EBF073408A4
:100CE80003110318013E03197A2EC00735080311B2
:100CF8000318013E0319812EC1070830B200031002
:100D0800B90DBA0DBB0DBC0DB20B832E3D083807CB
:100D1800B200B301B30D3208823EC2003308031893
:100D2800013EFF3EC300B52E0130B2000310BE0DD8
:100D3800BF0DC00DC10DB20B9A2EBC1FA42EA52E3F
:100D4800A62E3E140130B2000310B90DBA0DBB0D2A
:100D5800BC0DB20BA82EFF30C2070318C30AFF3020
:100D6800C307C01FB82EB92E982EB801BC1FBD2EC0
:100D7800BE2EDA2EFF303905B200FF303A05B30037
:100D8800FF303B05B4007F303C05B500350834041E
:100D9800330432040319D12ED22ED52E0130B800D7
:100DA800DA2E3E1CD82ED92EDA2ED22E3808031968
:100DB800DE2EDF2E102F0130BE0700300318013061
:100DC800BF07003003180130C00700300318013096
:100DD800C107411CF02EF12E102F3E08B2003F082B
:100DE800B3004008B4004108B5000130B600350D25
:100DF800B50CB40CB30CB20CB60BFB2E3508C10005
:100E08003408C0003308BF003208BE000130C207F2
:100E18000318C30A0030C3074308803AFF00803034
:100E28007F02031D192FFF304202031C1C2F1D2FA8
:100E3800282F7F3083120313C1008030C000003098
:100E4800BF000030BE00592F831203134308803AB5
:100E5800FF0080307F02031D332F01304202031848
:100E6800362F372F432F003083120313C100003071
:100E7800C0000030BF000030BE00B701592F8312F8
:100E880003134208BD00FF30BE05FF30BF057F30A9
:100E9800C0050030C1053D1C522F532F542FC017D9
:100EA8003D08B2000310320CC1003708C1044108E4
:100EB800AD004008AC003F08AB003E08AA0008009F
:100EC800031083120313460D470DF7007708031D1F
:100ED8006E2F6F2F782F0030C7000030C60000300B
:100EE800C5000030C400D92F4408C8004508C9000F
:100EF8004608CA004708CB001F300310CB0CCA0CA9
:100F0800C90CC80CFF3E031D812F4808F600C61700
:100F1800FF30C405FF30C505FF30C6050030C705E2
:100F28009630F702F71F992F9A2FB22F7708803A39
:100F3800973E0318A02FA12FA22F6F2F0130031067
:100F4800C70CC60CC50CC40CFF3E031DA32F0130F3
:100F5800F707031DB02FB12FA22FC92F203077021A
:100F6800031CB72FB82FC42F6F2F0130C8000310F0
:100F7800C40DC50DC60DC70DC80BBB2F0130F70238
:100F88007708031DC82FC92FB92F76080319CD2F4D
:100F9800CE2FD92FC409C509C609C709C40A031920
:100FA800C50A0319C60A0319C70A08004834913448
:100FB8004E349134E034903429349134BF34903431
:100FC800923490341A349134CA349034F4349034CE
:100FD80008349134EA349034B43490345934913428
:100FE80063349134223491345434913467349134D5
:080FF80011340034013400340F
:1010040083120313A400A001A1017208F400F501E6
:101014007408A2007508A300241C1128122818289B
:101024002208A0070318A10A2308A107013003100E
:10103400A20DA30DFF3E031D19280310A40C2408C0
:10104400031D252826280E282108F3002008F20075
:101054000800831203130608F2003F30F2053F3004
:10106400720603193628372844287B0803193B28BD
:101074003C284428FB01720883160313CC00C401E6
:10108400C5019D283F307206031D49284A2864285B
:101094007B08031D4E284F2864280130FB0083166B
:1010A40003134508803AFF0080307F02031D5C284B
:1010B4000F30440203185F2860289D288316031309
:1010C4004C089E287B08031D6828692881288316FC
:1010D40003134508803AFF0080307F02031D742803
:1010E40010304402031877287828812801308316A9
:1010F4000313C4070318C50A0030C5079D287B08DD
:10110400031D852886289D28103083160313440662
:101114004504031D8E288F289D2837307206031D31
:10112400942895289D280130C4070318C50A003067
:10113400C50799309E283F30080083120313A70087
:1011440022308316031342064304031DAA28AB2846
:10115400B6280A168A1139240A128A15FF30831612
:101164000313C2000030C300373083120313270671
:10117400031DBD28BE28D9280A168A1139240A124B
:101184008A150530F2000030F300831203136B0854
:10119400013EF400003003180130F5000A168A11EC
:1011A400C4250A128A15720883120313EB007A30DD
:1011B400A0009030A1008030A2000A168A11E32416
:1011C4000A128A15C030F8002A300A168A117024CF
:1011D4000A128A15831203136B08A5002507B83E6B
:1011E400840083130008A000840A00088403A1007B
:1011F400C130A2000A168A11E3240A128A150530A6
:10120400F2000030F300831203136B08013EF40074
:10121400003003180130F5000A168A11C4250A1299
:101224008A15720883120313A5002507B83E8400AB
:1012340083130008A000840A00088403A1009130ED
:10124400A2000A168A11E3240A128A150530F20054
:101254000030F300831203136B08023EF4000030E5
:1012640003180130F5000A168A11C4250A128A15DA
:10127400720883120313A5002507B83E8400831364
:101284000008A000840A00088403A100D130A20051
:101294000A168A11E3240A128A150800831203131A
:1012A400A40024080319572958296C29F51F5B2920
:1012B4005C296C297209A6007309A7007409A800A7
:1012C4007509A900A60A0319A70A0319A80A03198C
:1012D400A90A74297508A9007408A8007308A7004E
:1012E4007208A6007508740473047204031D7B2934
:1012F4007C2985290030F5000030F4000030F3002B
:101304000030F200052A9630A50093290130A50784
:1013140001300310A90CA80CA70CA60CFF3E031D5A
:101324008B29FE302905031D982999298829B32979
:101334000130A5070130A607003003180130A707C4
:10134400003003180130A807003003180130A90742
:1013540001300310A90CA80CA70CA60CFF3E031D1A
:10136400AB29FF302905031DB829B9299A29C529B4
:101374000130A5020130A0000310A60DA70DA80D91
:10138400A90DA00BBE29A81BC829C929CF29023041
:1013940025020318CE29CF29BA292518D229D32901
:1013A400DB29FF30A605FF30A7057F30A805FF30F5
:1013B400A9050310A50C2508A000A101A201A30101
:1013C40018300310A00DA10DA20DA30DFF3E031DA7
:1013D400E3292008A6042108A7042208A804230856
:1013E400A90424080319F729F829FD29F51FFB2965
:1013F400FC29FD29A9172908F5002808F400270865
:10140400F3002608F200080083120313A70011302A
:101414008316031342064304031D112A122A1D2AAC
:101424000A168A1139240A128A15FF308316031307
:10143400C2000030C3003730831203132706031D94
:10144400242A252A402A0A168A1139240A128A15BE
:101454000C30F2000030F300831203136C08013ED9
:10146400F400003003180130F5000A168A11C4256F
:101474000A128A15720883120313EC002330A000A9
:101484009030A1008030A2000A168A11E3240A12C7
:101494008A15C030F8002A300A168A1170240A12FC
:1014A4008A150A30831203136C0203185A2A5B2A22
:1014B400992A6C08A5002507A03E84008313000820
:1014C400A000840A00088403A100C130A2000A1607
:1014D4008A11E3240A128A15831203136C08A500E7
:1014E4002507A23E840083130008A000840A000894
:1014F4008403A1009130A2000A168A11E3240A127F
:101504008A15831203136C08A5002507A43E8400E2
:1015140083130008A000840A00088403A100D130CA
:10152400A2000A168A11E3240A128A151A2B0A3019
:101534006C06031D9E2A9F2ADB2A6C08A50025073A
:10154400A03E840083130008A000840A00088403DA
:10155400A100C130A2000A168A11E3240A128A15D6
:10156400831203136C08A5002507A23E840083138D
:101574000008A000840A00088403A1009130A2009E
:101584000A168A11E3240A128A1583160313200803
:1015940083120313A0008316031321088312031379
:1015A400A100D130A2000A168A11E3240A128A1576
:1015B4001A2B0B306C06031DE02AE12A1A2B6C0847
:1015C400A5002507A03E840083130008A000840A18
:1015D40000088403A100C130A2000A168A11E32482
:1015E4000A128A1583160313200883120313A0001A
:1015F40083160313210883120313A1009130A20060
:101604000A168A11E3240A128A1583160313220880
:1016140083120313A00083160313230883120313F6
:10162400A100D130A2000A168A11E3240A128A15F5
:1016340008000A168A1185240A128A154330831277
:101644000313A0009030A1008130A2000A168A1171
:10165400E3240A128A15113083120313A000913077
:10166400A100C530A2000A168A11E3240A128A15C1
:10167400333083120313A0009030A1009130A200F4
:101684000A168A11E3240A128A155C2BB8308316D1
:101694000313CD000B30CE000130CD020030031C0B
:1016A400CE03CE024D0A031D5B2B4E0A031D5B2B9A
:1016B4005C2B4E2B00300A128A152B200A128A1535
:1016C4002F3A031D662B672B482B0A168A113924DF
:1016D4000A128A150A168A11EB260A128A151A307A
:1016E40083120313E7005E30E6006D30E500E50B7E
:1016F400792BE60B792BE70B792B802B0A168A11B1
:1017040039240A128A1500300A128A152B200A126B
:101714008A1583160313D100B830CF000B30D000E4
:101724000130CF020030031CD003D0024F0A031D46
:101734009F2B500A031D9F2BA02B922B99305106EF
:10174400031DA52BA62BB52B79037A04031DAB2B04
:10175400AC2BB52B0230F9000030FA002230C20065
:101764000030C3004A2C99305106031DBA2BBB2B01
:10177400F82B023079067A04031DC12BC22BF82BF7
:101784000330F9000030FA000A168A1139240A12CB
:101794008A156D3083120313A0009030A1008030AD
:1017A400A2000A168A11E3240A128A15D53083127C
:1017B4000313A0009030A100C030A2000A168A11C1
:1017C400E3240A128A15FE3083120313A00090301A
:1017D400A1009030A2000A168A11E3240A128A1585
:1017E4000A128A1561240A128A154A2C2F305106CE
:1017F400031DFD2BFE2B0E2C443079067A04031DA9
:10180400042C052C0E2C0430F9000030FA0083124D
:101814000313121507154A2C4A2C83160313510877
:101824000A128A1506220A128A15852B83160313B7
:1018340051080A128A159F200A128A15852B2F3007
:10184400831603135106031D282C292C322C043033
:10185400F9000030FA003330C2000030C300852B99
:101864001F305106031D372C382C5D2C0130F90034
:101874000030FA001130C2000030C300852B8316FB
:10188400031351080A128A1145200A128A15852B5E
:101894007A08003A03194F2C852B7908013A031969
:1018A4000F2C033A0319182C013A0319212C073A77
:1018B4000319412C852B852B0A128A110C287F2DA4
:1018C4002130EE00ED01A72D2930EE00642C2D30DF
:1018D400EE00642C6B08003A0319662C013A0319D4
:1018E400622C033A0319662C013A0319692C073A4E
:1018F4000319692CA72DED012830EE00A72DED0169
:101904003230EE00A72DED013930EE00A72D6B0823
:10191400003A0319812C013A03197D2C033A031967
:10192400812C013A0319852C073A0319852CA72D1C
:10193400ED011A30EE00A72DED011F30EE00A72DAA
:101944006B08003A03199A2C013A03199A2C033AAA
:1019540003199A2C013A03199E2C073A03199E2C59
:10196400A72D0130ED001030EE00A72D6B08003AD2
:101974000319B32C013A0319B32C033A0319B32CFA
:10198400013A0319B32C073A0319B32CA72D0130DC
:10199400ED002430EE00A72D6B08003A0319C92C82
:1019A400013A0319C92C033A0319C92C013A031942
:1019B400C92C073A0319C92CA72DED012430EE00D8
:1019C400A72D6B08003A03199E2C013A03199E2C8B
:1019D400033A03199E2C013A0319DF2C073A031921
:1019E400DF2CA72DED011D30EE00A72D6B08003A6A
:1019F4000319F42C013A0319F42C033A0319F42CB7
:101A0400013A0319F42C073A0319F42CA72DED011C
:101A14002E30EE00A72DED013530EE00A72D01305C
:101A2400ED00EE01A72D6B08003A03190D2D013AC4
:101A34000319092D033A03190D2D013A0319112D28
:101A4400073A0319112DA72DED011230EE00A72D31
:101A5400ED011430EE00A72D6B08003A03192A2D6E
:101A6400013A0319262D033A03192A2D013A0319C1
:101A74002A2D073A03192A2DA72DED010630EE0071
:101A8400A72D6B08003A03193F2D013A03193F2D86
:101A9400033A03193F2D013A03193F2D073A03195D
:101AA4003F2DA72DED011030EE00A72DED011530CF
:101AB400EE00A72D6B08003A0319582D013A0319BB
:101AC400542D033A0319582D013A0319582D073A96
:101AD4000319582DA72D812C6B08003A0319812C6A
:101AE400013A03196D2D033A0319812C013A0319A4
:101AF400812C073A0319812CA72D831203136C0838
:101B0400003A03196C2C013A0319892C033A03197E
:101B1400A22C013A0319B82C073A0319CE2C013A26
:101B24000319E32C033A0319F82C013A0319152D70
:101B34000F3A03192E2D013A0319432D033A0319C1
:101B44005C2D013A03196E2DA72D0800831203138F
:101B54002308F2008030F2052308A8002807F400C7
:101B6400A21FB52DB62DB72D741474080319BB2DFF
:101B7400BC2DCC2D740A031DC02DC12DC92D0030E0
:101B8400A3000030A2000030A1000030A000A21782
:101B9400A301D42D0030A3000030A2000030A10026
:101BA4000030A0002708F3008030F30573087206A4
:101BB4000319DD2DDE2DDF2D72172708A800280755
:101BC400F300A61FE62DE72DE82D731473080319FF
:101BD400EC2DED2DFD2D730A031DF12DF22DFA2DA3
:101BE4000030A7000030A6000030A5000030A4009B
:101BF400A617A701052E0030A7000030A60000306C
:101C0400A5000030A4007408730203180A2E0B2EDA
:101C14002F2E721F0E2E0F2E112E8030F2067408F6
:101C2400F5007308F4007508F3002008F500240893
:101C3400A0007508A4002108F5002508A100750876
:101C4400A5002208F5002608A2007508A6002308AE
:101C5400F5002708A3007508A700F5017308A8007C
:101C6400A9012908AB0074082802AA00031CAB03CD
:101C74002B08803AFF0080307F02031D432E1A3068
:101C84002A02031C462E472E802E83120313230898
:101C9400220421042004031D502E522E0130532E01
:101CA4000030F5000030A3000030A2000030A10095
:101CB4000030A0007308F400862E751C622E632E7B
:101CC4006C2E750883120313A8000310280C013826
:101CD400F5006E2E0310F50C83120313201C732ED3
:101CE400742E752EF5170130A800230DA30CA20C39
:101CF400A10CA00CA80B772E0130F4077308740212
:101D0400031C852E862E5F2E721B892E8A2ED52EBD
:101D14007408031D8E2E8F2E9A2E00308312031307
:101D2400A3000030A2000030A1000030A000FF2F6B
:101D3400831203132408A007250803110318013E86
:101D44000319A52EA107260803110318013E031940
:101D5400AC2EA207270803110318013E0319B32E62
:101D6400A307231CB62EB72E8B2F751CBA2EBB2EA1
:101D7400C22E7508A8000310280C0138F500C42EE3
:101D84000310F50C201CC72EC82EC92EF5170130E0
:101D9400A800230DA30CA20CA10CA00CA80BCB2E05
:101DA4000130F4078B2F831203132308803AFF00BA
:101DB4002708803A7F02031DE92E26082202031D0C
:101DC400E92E25082102031DE92E24082002031808
:101DD400EC2EED2E442FFF30A800FF30A900FF3079
:101DE400AA00FF30AB002408AC002508AD0026088B
:101DF400AE002708AF002008AC022108031C210F05
:101E0400042F052FAD022208031C220F0A2F0B2FCB
:101E1400AE022308031C230F102F112FAF022C082E
:101E2400A8072D0803182D0F182F192FA9072E08FE
:101E340003182E0F1E2F1F2FAA072F0803182F0A6F
:101E4400AB072B08A3002A08A2002908A100280830
:101E5400A0008030F2067503FF3AF5007508031DF3
:101E6400342F352F522F0130A007003003180130D2
:101E7400A107003003180130A20700300318013015
:101E8400A307522F2408A0022508031C250FA10232
:101E94002608031C260FA2022708031C270FA302EF
:101EA4002308220421042004031D592F5A2F872FAD
:101EB4007508031D5E2F5F2F872F0030A3000030AD
:101EC400A2000030A1000030A000FF2F0130A800C4
:101ED4000310A00DA10DA20DA30DA80B6A2FF51FD1
:101EE400742F752F762F2014751C792F7A2F7E2F3F
:101EF4000314750DF500802F0310F50D74080319F4
:101F0400842F852F872F0130F402A21F8A2F8B2F55
:101F1400682FF301F51F8F2F902F9E2F75087F399F
:101F24000319952F962F992F0130F3009E2F201C13
:101F34009C2F9D2F9E2F962F73080319A22FA32F3A
:101F4400D52F0130A007003003180130A10700305D
:101F540003180130A207003003180130A307231C23
:101F6400B42FB52FD52F2008A8002108A9002208D6
:101F7400AA002308AB000130AC002B0DAB0CAA0C5B
:101F8400A90CA80CAC0BBF2F2B08A3002A08A20095
:101F94002908A1002808A000740A0319D22FD32FFE
:101FA400D52F0130F407740A0319D92FDA2FDF2F44
:101FB4007408031DDE2FDF2FED2F0030A300003047
:101FC400A2000030A1000030A0007408031DEB2F14
:101FD400EC2FED2FF201741CF02FF12FF32FA21729
:101FE400F52F7F30A2057408A8000310280CA30065
:101FF400F21FFD2FFE2FFF2FA317080050346C345F
:102004006534613473346534203463346C346F3430
:1020140073346534203464346F346F347234003470
:10202400503472346F346734723461346D34203414
:1020340063346F346D3470346C34653474346534A3
:102044000034773461347334683469346E346734FB
:102054002034703472346F346734723461346D34C4
:102064000034573461347334683469346E346734FB
:1020740020344D3461346334683469346E346534E7
:1020840000345034723465347334733420346B3414
:102094006534793420343534203474346F34003466
:1020A400523465346D346F3476346534203463349B
:1020B4006C346F34743468347334003444344F34BF
:1020C4004F34523420344934533420344F34503450
:1020D40045344E340034703472346534733473349C
:1020E400203473347734693474346334683400349A
:1020F4005734413454344534523420344C34453408
:10210400563445344C34003450346F3477346534A9
:10211400723469346E34673420344F344E340034AE
:10212400453463346F34203463346F34743474341A
:102134006F346E3473340034463455344E3443347F
:10214400543449344F344E343A3420340034533404
:10215400573436343A3420345034413455345334BB
:10216400453400344134713475346134203473346B
:1021740074346F34723465340034533474346134D9
:1021840069346E3420347734613473346834003401
:1021940042346534643420347334683465346534CB
:1021A4007434733400345334573435343A3420346B
:1021B4005334543441345234543400344434653444
:1021C400643469346334613474346534733400348E
:1021D400573461347334683420346F346E346C345F
:1021E40079340034523469346E34733465342B34A6
:1021F40044347234793400345334573436343A34F2
:102204002034533454344F3450340034443472340E
:10221400793420346F346E346C347934003450346F
:102224006F3477346534723420344F344E34003490
:1022340057346F346F346C3465346E347334003413
:102244004D3445344434493455344D3400345734D2
:1022540068346934743465347334003473347034DA
:1022640069346E3420340034543449344D344534A4
:102274003A340034503472346F3467343A340034AE
:10228400723469346E3473346534003444346134E4
:1022940069346C34793400344834653461347634C8
:1022A40079340034483449344734483400344134B0
:1022B400553454344F340034543469346D346534F3
:1022C40000344C344F34573400344D344134583492
:1022D4000034FF1B752983137F1883170008840AB1
:1022E4000319FF0A08007F087F398A000408840A5A
:0622F4000319FF0A82003D
:102834000134003401348316031306083F3886003C
:102844000800831603138801091189100A168A11D6
:102854006D250A168A110800831603138C1483123B
:1028640003131211FA308316031392000800F201C5
:1028740001300A168A119F240A168A110430F700BF
:102884003D30F600F60B442CF70B442C492C080081
:10289400F400F301741C4F2C502C522C7208F307D3
:1028A4000310F20D0310F40C7408031D5A2C5B2C56
:1028B4004C2C730808007E088A007F0882000A16E0
:1028C4008A115D240A168A118000840A04087D0690
:1028D40003190034FF0A0319FE0A612C831203133F
:1028E400A400F20178080A168A119F240A168A1194
:1028F400F201F20A8312031324080A168A119F2490
:102904000A168A1108000A168A1123240A168A1143
:102914000A168A111D240A168A110A168A112E24EF
:102924000A168A118B170B178316031387100711C6
:1029340083120313071187100800F5007218A32CE3
:10294400A72C831203130915AA2C8312031309114C
:10295400750888008914A630F300F30BAF2C00002F
:102964008312031389101B30F4009E30F300F30B21
:10297400B92CF40BB92C0000080080308312031327
:10298400C7064B08A3004A08A2004908A10048084A
:10299400A0004708A7004608A6004508A50044086B
:1029A400A4000A128A15A8250A168A118312031391
:1029B4002308C7002208C6002108C5002008C40057
:1029C4000800F2018312031322080A168A119F24B5
:1029D4000A168A11052DF201F20A2108FF002008C7
:1029E40084000A168A116B210A168A110A168A11A2
:1029F4009F240A168A11013083120313A0070318B7
:102A0400A10A0030A107831203132108FF00200844
:102A140084000A168A116B210A168A11003A031DD2
:102A2400142D152DED2C0800831203138C1C1B2D63
:102A34001C2D662D013083160313C60700300318BE
:102A44000130C707003003180130C80700300318ED
:102A54000130C907203046064E30031947064804A2
:102A64004904031D362D372D632D831203136E087D
:102A740003193D2D3E2D4B2D0130EE0200308316FF
:102A84000313C9000030C8000030C7000030C6007E
:102A9400592D6E08031D4F2D502D592D6D08031906
:102AA400542D552D592D0130ED023C30EE000030EF
:102AB40083160313C9000030C8000030C70000307B
:102AC400C600831203138C1071088A00700E8300F1
:102AD400FE0E7E0E0900C330F700CD30F600F60B73
:102AE400712DF70B712DF20133300A168A119F24D0
:102AF4000A168A111B30F7009E30F600F60B802D63
:102B0400F70B802D0000F20133300A168A119F243E
:102B14000A168A11A630F600F60B8E2D0000F2017B
:102B240033300A168A119F240A168A11992D9A2D78
:102B34000000F2013C300A168A119F240A168A11F9
:102B4400A630F600F60BA42D0000F20101300A169F
:102B54008A119F240A168A110430F7003D30F600CA
:102B6400F60BB22DF70BB22DB72DF2010C300A166D
:102B74008A119F240A168A11A630F600F60BC02D7E
:102B840000000800F701F51FC82DC92DD02DF40948
:102B9400F509F40A0319F50A0130F700F31FD32DE0
:102BA400D42DD92DF209F309F20A0319F30A720894
:102BB40073040319DE2DDF2D0C2E0130F600EB2DEE
:102BC40001300310F20DF30DFF3E031DE32D013020
:102BD400F607F31FEE2DEF2DE22D73087502031D8A
:102BE400F52D72087402031CF82DF92DFF2D7208BF
:102BF400F4027308031CF503F50201300310F30C0F
:102C0400F20CFF3E031D002E0130F602031D0B2EB5
:102C14000C2EEF2D77080319102E112E162EF40901
:102C2400F509F40A0319F50A7508F3007408F200AB
:102C3400080083120313A101F31F212E222E292E33
:102C4400F209F309F20A0319F30A0130A100F51F8E
:102C54002C2E2D2E342EF409F509F40A0319F50A45
:102C64000130A106A201A3017208730403193B2ECB
:102C74003C2E712E0130A000482E01300310F20DBD
:102C8400F30DFF3E031D402E0130A007F31F4B2E12
:102C94004C2E3F2E01300310A20DA30DFF3E031D49
:102CA4004D2E73087502031D592E72087402031CFD
:102CB4005C2E5D2E642E7208F4027308031CF50367
:102CC400F502221401300310F30CF20CFF3E031D35
:102CD400652E0130A002031D702E712E4C2E21088A
:102CE4000319752E762E7B2EA209A309A20A0319B5
:102CF400A30A2308F3002208F20008008312031336
:102D04000618852E862EEA2E0711121187140A162C
:102D14008A1139240A168A11603083120313A00021
:102D24009030A1008030A2000A168A11E3240A160A
:102D34008A11003083120313A0009030A100C03028
:102D4400A2000A168A11E3240A168A1183120313B5
:102D5400061CAD2EAE2EA82E0715121587100A16C6
:102D64008A1139240A168A119E3083120313A00093
:102D74009030A1008030A2000A168A11E3240A16BA
:102D84008A115E3083120313A0009130A100C03079
:102D9400A2000A168A11E3240A168A11D530831276
:102DA4000313A0009030A1009030A2000A168A11EB
:102DB400E3240A168A11A93083120313A000903069
:102DC400A100D030A2000A168A11E3240A168A113F
:102DD400080083120313A801A9012808803EF80003
:102DE400FF300A168A1170240A168A1103308312DE
:102DF4000313A7008A30A6005530A500A50B002FA9
:102E0400A60B002FA70B002F013083120313A80772
:102E14000318A90A0030A907003029021030031949
:102E24002802031C162F172FEF2E8630A000903097
:102E3400A100C330A2000A168A11E3240A168A11DB
:102E4400333083120313A0009030A1009130A2000C
:102E54000A168A11E3240A168A1183120313AA019B
:102E6400AB012A08D03EF800FF300A168A117024FC
:102E74000A168A11033083120313A7008A30A600AE
:102E84005530A500A50B442FA60B442FA70B442FA8
:102E9400013083120313AA070318AB0A0030AB07EF
:102EA40000302B02103003192A02031C5A2F5B2F07
:102EB400332F08000030831203134C05D400003074
:102EC4004D05D50080304E05D6007F304F05D70024
:102ED4005708560455045404031D712F722F7A2F7A
:102EE4000030CF000030CE000030CD000030CC00E8
:102EF40000305005D40000305105D5008030520513
:102F0400D6007F305305D70057085604550454049F
:102F1400031D8D2F8E2F962F0030D3000030D2004A
:102F24000030D1000030D000CF1F992F9A2FBE2F30
:102F34000030D4000030D5000030D6008030D700F7
:102F44004C08D4024D08031C4D0FA92FAA2FD502FB
:102F54004E08031C4E0FAF2FB02FD6024F08031C90
:102F64004F0FB52FB62FD7025708CF005608CE0003
:102F74005508CD005408CC00D31FC12FC22FE62F13
:102F84000030D4000030D5000030D6008030D700A7
:102F94005008D4025108031C510FD12FD22FD5024F
:102FA4005208031C520FD72FD82FD6025308031CE4
:102FB400530FDD2FDE2FD7025708D3005608D20057
:102FC4005508D1005408D0008030CF068030D30695
:102FD40053084F02031DF82F52084E02031DF82F09
:102FE40051084D02031DF82F50084C020318FB2F03
:0C2FF400FC2FFE2F0310FF2F0314080019
:02400E00FB3F76
:00000001FF
